{
  "_format": "hh-sol-artifact-1",
  "contractName": "PersonNFT",
  "sourceName": "contracts/Person.sol",
  "abi": [
    {
      "inputs": [],
      "stateMutability": "nonpayable",
      "type": "constructor"
    },
    {
      "anonymous": false,
      "inputs": [
        {
          "indexed": true,
          "internalType": "address",
          "name": "account",
          "type": "address"
        },
        {
          "indexed": true,
          "internalType": "address",
          "name": "operator",
          "type": "address"
        },
        {
          "indexed": false,
          "internalType": "bool",
          "name": "approved",
          "type": "bool"
        }
      ],
      "name": "ApprovalForAll",
      "type": "event"
    },
    {
      "anonymous": false,
      "inputs": [
        {
          "indexed": true,
          "internalType": "address",
          "name": "previousOwner",
          "type": "address"
        },
        {
          "indexed": true,
          "internalType": "address",
          "name": "newOwner",
          "type": "address"
        }
      ],
      "name": "OwnershipTransferred",
      "type": "event"
    },
    {
      "anonymous": false,
      "inputs": [
        {
          "indexed": true,
          "internalType": "address",
          "name": "operator",
          "type": "address"
        },
        {
          "indexed": true,
          "internalType": "address",
          "name": "from",
          "type": "address"
        },
        {
          "indexed": true,
          "internalType": "address",
          "name": "to",
          "type": "address"
        },
        {
          "indexed": false,
          "internalType": "uint256[]",
          "name": "ids",
          "type": "uint256[]"
        },
        {
          "indexed": false,
          "internalType": "uint256[]",
          "name": "values",
          "type": "uint256[]"
        }
      ],
      "name": "TransferBatch",
      "type": "event"
    },
    {
      "anonymous": false,
      "inputs": [
        {
          "indexed": true,
          "internalType": "address",
          "name": "operator",
          "type": "address"
        },
        {
          "indexed": true,
          "internalType": "address",
          "name": "from",
          "type": "address"
        },
        {
          "indexed": true,
          "internalType": "address",
          "name": "to",
          "type": "address"
        },
        {
          "indexed": false,
          "internalType": "uint256",
          "name": "id",
          "type": "uint256"
        },
        {
          "indexed": false,
          "internalType": "uint256",
          "name": "value",
          "type": "uint256"
        }
      ],
      "name": "TransferSingle",
      "type": "event"
    },
    {
      "anonymous": false,
      "inputs": [
        {
          "indexed": false,
          "internalType": "string",
          "name": "value",
          "type": "string"
        },
        {
          "indexed": true,
          "internalType": "uint256",
          "name": "id",
          "type": "uint256"
        }
      ],
      "name": "URI",
      "type": "event"
    },
    {
      "inputs": [
        {
          "internalType": "uint256",
          "name": "",
          "type": "uint256"
        }
      ],
      "name": "People",
      "outputs": [
        {
          "internalType": "uint256",
          "name": "id",
          "type": "uint256"
        },
        {
          "internalType": "uint256",
          "name": "age",
          "type": "uint256"
        },
        {
          "internalType": "string",
          "name": "name",
          "type": "string"
        },
        {
          "internalType": "uint256",
          "name": "national_number",
          "type": "uint256"
        }
      ],
      "stateMutability": "view",
      "type": "function"
    },
    {
      "inputs": [
        {
          "internalType": "uint256",
          "name": "_id",
          "type": "uint256"
        },
        {
          "internalType": "uint256",
          "name": "_age",
          "type": "uint256"
        },
        {
          "internalType": "string",
          "name": "_name",
          "type": "string"
        },
        {
          "internalType": "uint256",
          "name": "the_national_number",
          "type": "uint256"
        }
      ],
      "name": "_newPerson",
      "outputs": [
        {
          "internalType": "uint256",
          "name": "",
          "type": "uint256"
        }
      ],
      "stateMutability": "nonpayable",
      "type": "function"
    },
    {
      "inputs": [
        {
          "internalType": "address",
          "name": "account",
          "type": "address"
        },
        {
          "internalType": "uint256",
          "name": "id",
          "type": "uint256"
        }
      ],
      "name": "balanceOf",
      "outputs": [
        {
          "internalType": "uint256",
          "name": "",
          "type": "uint256"
        }
      ],
      "stateMutability": "view",
      "type": "function"
    },
    {
      "inputs": [
        {
          "internalType": "address[]",
          "name": "accounts",
          "type": "address[]"
        },
        {
          "internalType": "uint256[]",
          "name": "ids",
          "type": "uint256[]"
        }
      ],
      "name": "balanceOfBatch",
      "outputs": [
        {
          "internalType": "uint256[]",
          "name": "",
          "type": "uint256[]"
        }
      ],
      "stateMutability": "view",
      "type": "function"
    },
    {
      "inputs": [
        {
          "internalType": "address",
          "name": "account",
          "type": "address"
        },
        {
          "internalType": "address",
          "name": "operator",
          "type": "address"
        }
      ],
      "name": "isApprovedForAll",
      "outputs": [
        {
          "internalType": "bool",
          "name": "",
          "type": "bool"
        }
      ],
      "stateMutability": "view",
      "type": "function"
    },
    {
      "inputs": [
        {
          "internalType": "address",
          "name": "recipient",
          "type": "address"
        },
        {
          "internalType": "string",
          "name": "_tokenURI",
          "type": "string"
        }
      ],
      "name": "mintNFT",
      "outputs": [
        {
          "internalType": "uint256",
          "name": "",
          "type": "uint256"
        }
      ],
      "stateMutability": "nonpayable",
      "type": "function"
    },
    {
      "inputs": [],
      "name": "owner",
      "outputs": [
        {
          "internalType": "address",
          "name": "",
          "type": "address"
        }
      ],
      "stateMutability": "view",
      "type": "function"
    },
    {
      "inputs": [],
      "name": "population",
      "outputs": [
        {
          "internalType": "uint256",
          "name": "",
          "type": "uint256"
        }
      ],
      "stateMutability": "view",
      "type": "function"
    },
    {
      "inputs": [],
      "name": "renounceOwnership",
      "outputs": [],
      "stateMutability": "nonpayable",
      "type": "function"
    },
    {
      "inputs": [
        {
          "internalType": "address",
          "name": "from",
          "type": "address"
        },
        {
          "internalType": "address",
          "name": "to",
          "type": "address"
        },
        {
          "internalType": "uint256[]",
          "name": "ids",
          "type": "uint256[]"
        },
        {
          "internalType": "uint256[]",
          "name": "amounts",
          "type": "uint256[]"
        },
        {
          "internalType": "bytes",
          "name": "data",
          "type": "bytes"
        }
      ],
      "name": "safeBatchTransferFrom",
      "outputs": [],
      "stateMutability": "nonpayable",
      "type": "function"
    },
    {
      "inputs": [
        {
          "internalType": "address",
          "name": "from",
          "type": "address"
        },
        {
          "internalType": "address",
          "name": "to",
          "type": "address"
        },
        {
          "internalType": "uint256",
          "name": "id",
          "type": "uint256"
        },
        {
          "internalType": "uint256",
          "name": "amount",
          "type": "uint256"
        },
        {
          "internalType": "bytes",
          "name": "data",
          "type": "bytes"
        }
      ],
      "name": "safeTransferFrom",
      "outputs": [],
      "stateMutability": "nonpayable",
      "type": "function"
    },
    {
      "inputs": [
        {
          "internalType": "address",
          "name": "operator",
          "type": "address"
        },
        {
          "internalType": "bool",
          "name": "approved",
          "type": "bool"
        }
      ],
      "name": "setApprovalForAll",
      "outputs": [],
      "stateMutability": "nonpayable",
      "type": "function"
    },
    {
      "inputs": [
        {
          "internalType": "bytes4",
          "name": "interfaceId",
          "type": "bytes4"
        }
      ],
      "name": "supportsInterface",
      "outputs": [
        {
          "internalType": "bool",
          "name": "",
          "type": "bool"
        }
      ],
      "stateMutability": "view",
      "type": "function"
    },
    {
      "inputs": [
        {
          "internalType": "address",
          "name": "newOwner",
          "type": "address"
        }
      ],
      "name": "transferOwnership",
      "outputs": [],
      "stateMutability": "nonpayable",
      "type": "function"
    },
    {
      "inputs": [
        {
          "internalType": "uint256",
          "name": "",
          "type": "uint256"
        }
      ],
      "name": "uri",
      "outputs": [
        {
          "internalType": "string",
          "name": "",
          "type": "string"
        }
      ],
      "stateMutability": "view",
      "type": "function"
    }
  ],
  "bytecode": "0x60806040523480156200001157600080fd5b506040518060200160405280600081525062000033816200005a60201b60201c565b5062000054620000486200007660201b60201c565b6200007e60201b60201c565b62000259565b80600290805190602001906200007292919062000144565b5050565b600033905090565b6000600360009054906101000a900473ffffffffffffffffffffffffffffffffffffffff16905081600360006101000a81548173ffffffffffffffffffffffffffffffffffffffff021916908373ffffffffffffffffffffffffffffffffffffffff1602179055508173ffffffffffffffffffffffffffffffffffffffff168173ffffffffffffffffffffffffffffffffffffffff167f8be0079c531659141344cd1fd0a4f28419497f9722a3daafe3b4186f6b6457e060405160405180910390a35050565b828054620001529062000223565b90600052602060002090601f016020900481019282620001765760008555620001c2565b82601f106200019157805160ff1916838001178555620001c2565b82800160010185558215620001c2579182015b82811115620001c1578251825591602001919060010190620001a4565b5b509050620001d19190620001d5565b5090565b5b80821115620001f0576000816000905550600101620001d6565b5090565b7f4e487b7100000000000000000000000000000000000000000000000000000000600052602260045260246000fd5b600060028204905060018216806200023c57607f821691505b60208210811415620002535762000252620001f4565b5b50919050565b61312c80620002696000396000f3fe608060405234801561001057600080fd5b50600436106100f45760003560e01c806378880f4a11610097578063e985e9c511610066578063e985e9c51461029a578063eacabe14146102ca578063f242432a146102fa578063f2fde38b14610316576100f4565b806378880f4a1461020f5780638da5cb5b1461022d578063a22cb4651461024b578063c7fb346814610267576100f4565b80632eb2c2d6116100d35780632eb2c2d6146101895780634e1273f4146101a5578063715018a6146101d5578063775380dd146101df576100f4565b8062fdd58e146100f957806301ffc9a7146101295780630e89341c14610159575b600080fd5b610113600480360381019061010e9190611bda565b610332565b6040516101209190611c29565b60405180910390f35b610143600480360381019061013e9190611c9c565b6103fb565b6040516101509190611ce4565b60405180910390f35b610173600480360381019061016e9190611cff565b6104dd565b6040516101809190611dc5565b60405180910390f35b6101a3600480360381019061019e9190611fe4565b610571565b005b6101bf60048036038101906101ba9190612176565b610612565b6040516101cc91906122ac565b60405180910390f35b6101dd61072b565b005b6101f960048036038101906101f4919061236f565b61073f565b6040516102069190611c29565b60405180910390f35b610217610819565b6040516102249190611c29565b60405180910390f35b61023561081f565b6040516102429190612401565b60405180910390f35b61026560048036038101906102609190612448565b610849565b005b610281600480360381019061027c9190611cff565b61085f565b6040516102919493929190612488565b60405180910390f35b6102b460048036038101906102af91906124d4565b610927565b6040516102c19190611ce4565b60405180910390f35b6102e460048036038101906102df9190612514565b6109bb565b6040516102f19190611c29565b60405180910390f35b610314600480360381019061030f9190612570565b610a0d565b005b610330600480360381019061032b9190612607565b610aae565b005b60008073ffffffffffffffffffffffffffffffffffffffff168373ffffffffffffffffffffffffffffffffffffffff1614156103a3576040517f08c379a000000000000000000000000000000000000000000000000000000000815260040161039a906126a6565b60405180910390fd5b60008083815260200190815260200160002060008473ffffffffffffffffffffffffffffffffffffffff1673ffffffffffffffffffffffffffffffffffffffff16815260200190815260200160002054905092915050565b60007fd9b67a26000000000000000000000000000000000000000000000000000000007bffffffffffffffffffffffffffffffffffffffffffffffffffffffff1916827bffffffffffffffffffffffffffffffffffffffffffffffffffffffff191614806104c657507f0e89341c000000000000000000000000000000000000000000000000000000007bffffffffffffffffffffffffffffffffffffffffffffffffffffffff1916827bffffffffffffffffffffffffffffffffffffffffffffffffffffffff1916145b806104d657506104d582610b32565b5b9050919050565b6060600280546104ec906126f5565b80601f0160208091040260200160405190810160405280929190818152602001828054610518906126f5565b80156105655780601f1061053a57610100808354040283529160200191610565565b820191906000526020600020905b81548152906001019060200180831161054857829003601f168201915b50505050509050919050565b610579610b9c565b73ffffffffffffffffffffffffffffffffffffffff168573ffffffffffffffffffffffffffffffffffffffff1614806105bf57506105be856105b9610b9c565b610927565b5b6105fe576040517f08c379a00000000000000000000000000000000000000000000000000000000081526004016105f590612799565b60405180910390fd5b61060b8585858585610ba4565b5050505050565b60608151835114610658576040517f08c379a000000000000000000000000000000000000000000000000000000000815260040161064f9061282b565b60405180910390fd5b6000835167ffffffffffffffff81111561067557610674611dec565b5b6040519080825280602002602001820160405280156106a35781602001602082028036833780820191505090505b50905060005b8451811015610720576106f08582815181106106c8576106c761284b565b5b60200260200101518583815181106106e3576106e261284b565b5b6020026020010151610332565b8282815181106107035761070261284b565b5b60200260200101818152505080610719906128a9565b90506106a9565b508091505092915050565b610733610ec6565b61073d6000610f44565b565b60008060405180608001604052808781526020018667ffffffffffffffff1681526020018581526020018463ffffffff1681525090506007819080600181540180825580915050600190039060005260206000209060040201600090919091909150600082015181600001556020820151816001015560408201518160020190805190602001906107d1929190611a8f565b50606082015181600301555050600060016007805490506107f291906128f2565b905060046000815480929190610807906128a9565b91905055508092505050949350505050565b60045481565b6000600360009054906101000a900473ffffffffffffffffffffffffffffffffffffffff16905090565b61085b610854610b9c565b838361100a565b5050565b6007818154811061086f57600080fd5b906000526020600020906004020160009150905080600001549080600101549080600201805461089e906126f5565b80601f01602080910402602001604051908101604052809291908181526020018280546108ca906126f5565b80156109175780601f106108ec57610100808354040283529160200191610917565b820191906000526020600020905b8154815290600101906020018083116108fa57829003601f168201915b5050505050908060030154905084565b6000600160008473ffffffffffffffffffffffffffffffffffffffff1673ffffffffffffffffffffffffffffffffffffffff16815260200190815260200160002060008373ffffffffffffffffffffffffffffffffffffffff1673ffffffffffffffffffffffffffffffffffffffff16815260200190815260200160002060009054906101000a900460ff16905092915050565b60006109c5610ec6565b6109cf6005611177565b60006109db600561118d565b90506109f9848260016040518060200160405280600081525061119b565b610a03818461134c565b8091505092915050565b610a15610b9c565b73ffffffffffffffffffffffffffffffffffffffff168573ffffffffffffffffffffffffffffffffffffffff161480610a5b5750610a5a85610a55610b9c565b610927565b5b610a9a576040517f08c379a0000000000000000000000000000000000000000000000000000000008152600401610a9190612799565b60405180910390fd5b610aa78585858585611378565b5050505050565b610ab6610ec6565b600073ffffffffffffffffffffffffffffffffffffffff168173ffffffffffffffffffffffffffffffffffffffff161415610b26576040517f08c379a0000000000000000000000000000000000000000000000000000000008152600401610b1d90612998565b60405180910390fd5b610b2f81610f44565b50565b60007f01ffc9a7000000000000000000000000000000000000000000000000000000007bffffffffffffffffffffffffffffffffffffffffffffffffffffffff1916827bffffffffffffffffffffffffffffffffffffffffffffffffffffffff1916149050919050565b600033905090565b8151835114610be8576040517f08c379a0000000000000000000000000000000000000000000000000000000008152600401610bdf90612a2a565b60405180910390fd5b600073ffffffffffffffffffffffffffffffffffffffff168473ffffffffffffffffffffffffffffffffffffffff161415610c58576040517f08c379a0000000000000000000000000000000000000000000000000000000008152600401610c4f90612abc565b60405180910390fd5b6000610c62610b9c565b9050610c72818787878787611614565b60005b8451811015610e23576000858281518110610c9357610c9261284b565b5b602002602001015190506000858381518110610cb257610cb161284b565b5b60200260200101519050600080600084815260200190815260200160002060008b73ffffffffffffffffffffffffffffffffffffffff1673ffffffffffffffffffffffffffffffffffffffff16815260200190815260200160002054905081811015610d53576040517f08c379a0000000000000000000000000000000000000000000000000000000008152600401610d4a90612b4e565b60405180910390fd5b81810360008085815260200190815260200160002060008c73ffffffffffffffffffffffffffffffffffffffff1673ffffffffffffffffffffffffffffffffffffffff168152602001908152602001600020819055508160008085815260200190815260200160002060008b73ffffffffffffffffffffffffffffffffffffffff1673ffffffffffffffffffffffffffffffffffffffff1681526020019081526020016000206000828254610e089190612b6e565b9250508190555050505080610e1c906128a9565b9050610c75565b508473ffffffffffffffffffffffffffffffffffffffff168673ffffffffffffffffffffffffffffffffffffffff168273ffffffffffffffffffffffffffffffffffffffff167f4a39dc06d4c0dbc64b70af90fd698a233a518aa5d07e595d983b8c0526c8f7fb8787604051610e9a929190612bc4565b60405180910390a4610eb081878787878761161c565b610ebe818787878787611624565b505050505050565b610ece610b9c565b73ffffffffffffffffffffffffffffffffffffffff16610eec61081f565b73ffffffffffffffffffffffffffffffffffffffff1614610f42576040517f08c379a0000000000000000000000000000000000000000000000000000000008152600401610f3990612c47565b60405180910390fd5b565b6000600360009054906101000a900473ffffffffffffffffffffffffffffffffffffffff16905081600360006101000a81548173ffffffffffffffffffffffffffffffffffffffff021916908373ffffffffffffffffffffffffffffffffffffffff1602179055508173ffffffffffffffffffffffffffffffffffffffff168173ffffffffffffffffffffffffffffffffffffffff167f8be0079c531659141344cd1fd0a4f28419497f9722a3daafe3b4186f6b6457e060405160405180910390a35050565b8173ffffffffffffffffffffffffffffffffffffffff168373ffffffffffffffffffffffffffffffffffffffff161415611079576040517f08c379a000000000000000000000000000000000000000000000000000000000815260040161107090612cd9565b60405180910390fd5b80600160008573ffffffffffffffffffffffffffffffffffffffff1673ffffffffffffffffffffffffffffffffffffffff16815260200190815260200160002060008473ffffffffffffffffffffffffffffffffffffffff1673ffffffffffffffffffffffffffffffffffffffff16815260200190815260200160002060006101000a81548160ff0219169083151502179055508173ffffffffffffffffffffffffffffffffffffffff168373ffffffffffffffffffffffffffffffffffffffff167f17307eab39ab6107e8899845ad3d59bd9653f200f220920489ca2b5937696c318360405161116a9190611ce4565b60405180910390a3505050565b6001816000016000828254019250508190555050565b600081600001549050919050565b600073ffffffffffffffffffffffffffffffffffffffff168473ffffffffffffffffffffffffffffffffffffffff16141561120b576040517f08c379a000000000000000000000000000000000000000000000000000000000815260040161120290612d6b565b60405180910390fd5b6000611215610b9c565b905060006112228561180b565b9050600061122f8561180b565b905061124083600089858589611614565b8460008088815260200190815260200160002060008973ffffffffffffffffffffffffffffffffffffffff1673ffffffffffffffffffffffffffffffffffffffff168152602001908152602001600020600082825461129f9190612b6e565b925050819055508673ffffffffffffffffffffffffffffffffffffffff16600073ffffffffffffffffffffffffffffffffffffffff168473ffffffffffffffffffffffffffffffffffffffff167fc3d58168c5ae7397731d063d5bbf3d657854427343f4c083240f7aacaa2d0f62898960405161131d929190612d8b565b60405180910390a46113348360008985858961161c565b61134383600089898989611885565b50505050505050565b80600660008481526020019081526020016000209080519060200190611373929190611a8f565b505050565b600073ffffffffffffffffffffffffffffffffffffffff168473ffffffffffffffffffffffffffffffffffffffff1614156113e8576040517f08c379a00000000000000000000000000000000000000000000000000000000081526004016113df90612abc565b60405180910390fd5b60006113f2610b9c565b905060006113ff8561180b565b9050600061140c8561180b565b905061141c838989858589611614565b600080600088815260200190815260200160002060008a73ffffffffffffffffffffffffffffffffffffffff1673ffffffffffffffffffffffffffffffffffffffff168152602001908152602001600020549050858110156114b3576040517f08c379a00000000000000000000000000000000000000000000000000000000081526004016114aa90612b4e565b60405180910390fd5b85810360008089815260200190815260200160002060008b73ffffffffffffffffffffffffffffffffffffffff1673ffffffffffffffffffffffffffffffffffffffff168152602001908152602001600020819055508560008089815260200190815260200160002060008a73ffffffffffffffffffffffffffffffffffffffff1673ffffffffffffffffffffffffffffffffffffffff16815260200190815260200160002060008282546115689190612b6e565b925050819055508773ffffffffffffffffffffffffffffffffffffffff168973ffffffffffffffffffffffffffffffffffffffff168573ffffffffffffffffffffffffffffffffffffffff167fc3d58168c5ae7397731d063d5bbf3d657854427343f4c083240f7aacaa2d0f628a8a6040516115e5929190612d8b565b60405180910390a46115fb848a8a86868a61161c565b611609848a8a8a8a8a611885565b505050505050505050565b505050505050565b505050505050565b6116438473ffffffffffffffffffffffffffffffffffffffff16611a6c565b15611803578373ffffffffffffffffffffffffffffffffffffffff1663bc197c8187878686866040518663ffffffff1660e01b8152600401611689959493929190612e09565b602060405180830381600087803b1580156116a357600080fd5b505af19250505080156116d457506040513d601f19601f820116820180604052508101906116d19190612e86565b60015b61177a576116e0612ec0565b806308c379a0141561173d57506116f5612ee2565b80611700575061173f565b806040517f08c379a00000000000000000000000000000000000000000000000000000000081526004016117349190611dc5565b60405180910390fd5b505b6040517f08c379a000000000000000000000000000000000000000000000000000000000815260040161177190612fea565b60405180910390fd5b63bc197c8160e01b7bffffffffffffffffffffffffffffffffffffffffffffffffffffffff1916817bffffffffffffffffffffffffffffffffffffffffffffffffffffffff191614611801576040517f08c379a00000000000000000000000000000000000000000000000000000000081526004016117f89061307c565b60405180910390fd5b505b505050505050565b60606000600167ffffffffffffffff81111561182a57611829611dec565b5b6040519080825280602002602001820160405280156118585781602001602082028036833780820191505090505b50905082816000815181106118705761186f61284b565b5b60200260200101818152505080915050919050565b6118a48473ffffffffffffffffffffffffffffffffffffffff16611a6c565b15611a64578373ffffffffffffffffffffffffffffffffffffffff1663f23a6e6187878686866040518663ffffffff1660e01b81526004016118ea95949392919061309c565b602060405180830381600087803b15801561190457600080fd5b505af192505050801561193557506040513d601f19601f820116820180604052508101906119329190612e86565b60015b6119db57611941612ec0565b806308c379a0141561199e5750611956612ee2565b8061196157506119a0565b806040517f08c379a00000000000000000000000000000000000000000000000000000000081526004016119959190611dc5565b60405180910390fd5b505b6040517f08c379a00000000000000000000000000000000000000000000000000000000081526004016119d290612fea565b60405180910390fd5b63f23a6e6160e01b7bffffffffffffffffffffffffffffffffffffffffffffffffffffffff1916817bffffffffffffffffffffffffffffffffffffffffffffffffffffffff191614611a62576040517f08c379a0000000000000000000000000000000000000000000000000000000008152600401611a599061307c565b60405180910390fd5b505b505050505050565b6000808273ffffffffffffffffffffffffffffffffffffffff163b119050919050565b828054611a9b906126f5565b90600052602060002090601f016020900481019282611abd5760008555611b04565b82601f10611ad657805160ff1916838001178555611b04565b82800160010185558215611b04579182015b82811115611b03578251825591602001919060010190611ae8565b5b509050611b119190611b15565b5090565b5b80821115611b2e576000816000905550600101611b16565b5090565b6000604051905090565b600080fd5b600080fd5b600073ffffffffffffffffffffffffffffffffffffffff82169050919050565b6000611b7182611b46565b9050919050565b611b8181611b66565b8114611b8c57600080fd5b50565b600081359050611b9e81611b78565b92915050565b6000819050919050565b611bb781611ba4565b8114611bc257600080fd5b50565b600081359050611bd481611bae565b92915050565b60008060408385031215611bf157611bf0611b3c565b5b6000611bff85828601611b8f565b9250506020611c1085828601611bc5565b9150509250929050565b611c2381611ba4565b82525050565b6000602082019050611c3e6000830184611c1a565b92915050565b60007fffffffff0000000000000000000000000000000000000000000000000000000082169050919050565b611c7981611c44565b8114611c8457600080fd5b50565b600081359050611c9681611c70565b92915050565b600060208284031215611cb257611cb1611b3c565b5b6000611cc084828501611c87565b91505092915050565b60008115159050919050565b611cde81611cc9565b82525050565b6000602082019050611cf96000830184611cd5565b92915050565b600060208284031215611d1557611d14611b3c565b5b6000611d2384828501611bc5565b91505092915050565b600081519050919050565b600082825260208201905092915050565b60005b83811015611d66578082015181840152602081019050611d4b565b83811115611d75576000848401525b50505050565b6000601f19601f8301169050919050565b6000611d9782611d2c565b611da18185611d37565b9350611db1818560208601611d48565b611dba81611d7b565b840191505092915050565b60006020820190508181036000830152611ddf8184611d8c565b905092915050565b600080fd5b7f4e487b7100000000000000000000000000000000000000000000000000000000600052604160045260246000fd5b611e2482611d7b565b810181811067ffffffffffffffff82111715611e4357611e42611dec565b5b80604052505050565b6000611e56611b32565b9050611e628282611e1b565b919050565b600067ffffffffffffffff821115611e8257611e81611dec565b5b602082029050602081019050919050565b600080fd5b6000611eab611ea684611e67565b611e4c565b90508083825260208201905060208402830185811115611ece57611ecd611e93565b5b835b81811015611ef75780611ee38882611bc5565b845260208401935050602081019050611ed0565b5050509392505050565b600082601f830112611f1657611f15611de7565b5b8135611f26848260208601611e98565b91505092915050565b600080fd5b600067ffffffffffffffff821115611f4f57611f4e611dec565b5b611f5882611d7b565b9050602081019050919050565b82818337600083830152505050565b6000611f87611f8284611f34565b611e4c565b905082815260208101848484011115611fa357611fa2611f2f565b5b611fae848285611f65565b509392505050565b600082601f830112611fcb57611fca611de7565b5b8135611fdb848260208601611f74565b91505092915050565b600080600080600060a0868803121561200057611fff611b3c565b5b600061200e88828901611b8f565b955050602061201f88828901611b8f565b945050604086013567ffffffffffffffff8111156120405761203f611b41565b5b61204c88828901611f01565b935050606086013567ffffffffffffffff81111561206d5761206c611b41565b5b61207988828901611f01565b925050608086013567ffffffffffffffff81111561209a57612099611b41565b5b6120a688828901611fb6565b9150509295509295909350565b600067ffffffffffffffff8211156120ce576120cd611dec565b5b602082029050602081019050919050565b60006120f26120ed846120b3565b611e4c565b9050808382526020820190506020840283018581111561211557612114611e93565b5b835b8181101561213e578061212a8882611b8f565b845260208401935050602081019050612117565b5050509392505050565b600082601f83011261215d5761215c611de7565b5b813561216d8482602086016120df565b91505092915050565b6000806040838503121561218d5761218c611b3c565b5b600083013567ffffffffffffffff8111156121ab576121aa611b41565b5b6121b785828601612148565b925050602083013567ffffffffffffffff8111156121d8576121d7611b41565b5b6121e485828601611f01565b9150509250929050565b600081519050919050565b600082825260208201905092915050565b6000819050602082019050919050565b61222381611ba4565b82525050565b6000612235838361221a565b60208301905092915050565b6000602082019050919050565b6000612259826121ee565b61226381856121f9565b935061226e8361220a565b8060005b8381101561229f5781516122868882612229565b975061229183612241565b925050600181019050612272565b5085935050505092915050565b600060208201905081810360008301526122c6818461224e565b905092915050565b600067ffffffffffffffff8211156122e9576122e8611dec565b5b6122f282611d7b565b9050602081019050919050565b600061231261230d846122ce565b611e4c565b90508281526020810184848401111561232e5761232d611f2f565b5b612339848285611f65565b509392505050565b600082601f83011261235657612355611de7565b5b81356123668482602086016122ff565b91505092915050565b6000806000806080858703121561238957612388611b3c565b5b600061239787828801611bc5565b94505060206123a887828801611bc5565b935050604085013567ffffffffffffffff8111156123c9576123c8611b41565b5b6123d587828801612341565b92505060606123e687828801611bc5565b91505092959194509250565b6123fb81611b66565b82525050565b600060208201905061241660008301846123f2565b92915050565b61242581611cc9565b811461243057600080fd5b50565b6000813590506124428161241c565b92915050565b6000806040838503121561245f5761245e611b3c565b5b600061246d85828601611b8f565b925050602061247e85828601612433565b9150509250929050565b600060808201905061249d6000830187611c1a565b6124aa6020830186611c1a565b81810360408301526124bc8185611d8c565b90506124cb6060830184611c1a565b95945050505050565b600080604083850312156124eb576124ea611b3c565b5b60006124f985828601611b8f565b925050602061250a85828601611b8f565b9150509250929050565b6000806040838503121561252b5761252a611b3c565b5b600061253985828601611b8f565b925050602083013567ffffffffffffffff81111561255a57612559611b41565b5b61256685828601612341565b9150509250929050565b600080600080600060a0868803121561258c5761258b611b3c565b5b600061259a88828901611b8f565b95505060206125ab88828901611b8f565b94505060406125bc88828901611bc5565b93505060606125cd88828901611bc5565b925050608086013567ffffffffffffffff8111156125ee576125ed611b41565b5b6125fa88828901611fb6565b9150509295509295909350565b60006020828403121561261d5761261c611b3c565b5b600061262b84828501611b8f565b91505092915050565b7f455243313135353a2061646472657373207a65726f206973206e6f742061207660008201527f616c6964206f776e657200000000000000000000000000000000000000000000602082015250565b6000612690602a83611d37565b915061269b82612634565b604082019050919050565b600060208201905081810360008301526126bf81612683565b9050919050565b7f4e487b7100000000000000000000000000000000000000000000000000000000600052602260045260246000fd5b6000600282049050600182168061270d57607f821691505b60208210811415612721576127206126c6565b5b50919050565b7f455243313135353a2063616c6c6572206973206e6f7420746f6b656e206f776e60008201527f6572206f7220617070726f766564000000000000000000000000000000000000602082015250565b6000612783602e83611d37565b915061278e82612727565b604082019050919050565b600060208201905081810360008301526127b281612776565b9050919050565b7f455243313135353a206163636f756e747320616e6420696473206c656e67746860008201527f206d69736d617463680000000000000000000000000000000000000000000000602082015250565b6000612815602983611d37565b9150612820826127b9565b604082019050919050565b6000602082019050818103600083015261284481612808565b9050919050565b7f4e487b7100000000000000000000000000000000000000000000000000000000600052603260045260246000fd5b7f4e487b7100000000000000000000000000000000000000000000000000000000600052601160045260246000fd5b60006128b482611ba4565b91507fffffffffffffffffffffffffffffffffffffffffffffffffffffffffffffffff8214156128e7576128e661287a565b5b600182019050919050565b60006128fd82611ba4565b915061290883611ba4565b92508282101561291b5761291a61287a565b5b828203905092915050565b7f4f776e61626c653a206e6577206f776e657220697320746865207a65726f206160008201527f6464726573730000000000000000000000000000000000000000000000000000602082015250565b6000612982602683611d37565b915061298d82612926565b604082019050919050565b600060208201905081810360008301526129b181612975565b9050919050565b7f455243313135353a2069647320616e6420616d6f756e7473206c656e6774682060008201527f6d69736d61746368000000000000000000000000000000000000000000000000602082015250565b6000612a14602883611d37565b9150612a1f826129b8565b604082019050919050565b60006020820190508181036000830152612a4381612a07565b9050919050565b7f455243313135353a207472616e7366657220746f20746865207a65726f20616460008201527f6472657373000000000000000000000000000000000000000000000000000000602082015250565b6000612aa6602583611d37565b9150612ab182612a4a565b604082019050919050565b60006020820190508181036000830152612ad581612a99565b9050919050565b7f455243313135353a20696e73756666696369656e742062616c616e636520666f60008201527f72207472616e7366657200000000000000000000000000000000000000000000602082015250565b6000612b38602a83611d37565b9150612b4382612adc565b604082019050919050565b60006020820190508181036000830152612b6781612b2b565b9050919050565b6000612b7982611ba4565b9150612b8483611ba4565b9250827fffffffffffffffffffffffffffffffffffffffffffffffffffffffffffffffff03821115612bb957612bb861287a565b5b828201905092915050565b60006040820190508181036000830152612bde818561224e565b90508181036020830152612bf2818461224e565b90509392505050565b7f4f776e61626c653a2063616c6c6572206973206e6f7420746865206f776e6572600082015250565b6000612c31602083611d37565b9150612c3c82612bfb565b602082019050919050565b60006020820190508181036000830152612c6081612c24565b9050919050565b7f455243313135353a2073657474696e6720617070726f76616c2073746174757360008201527f20666f722073656c660000000000000000000000000000000000000000000000602082015250565b6000612cc3602983611d37565b9150612cce82612c67565b604082019050919050565b60006020820190508181036000830152612cf281612cb6565b9050919050565b7f455243313135353a206d696e7420746f20746865207a65726f2061646472657360008201527f7300000000000000000000000000000000000000000000000000000000000000602082015250565b6000612d55602183611d37565b9150612d6082612cf9565b604082019050919050565b60006020820190508181036000830152612d8481612d48565b9050919050565b6000604082019050612da06000830185611c1a565b612dad6020830184611c1a565b9392505050565b600081519050919050565b600082825260208201905092915050565b6000612ddb82612db4565b612de58185612dbf565b9350612df5818560208601611d48565b612dfe81611d7b565b840191505092915050565b600060a082019050612e1e60008301886123f2565b612e2b60208301876123f2565b8181036040830152612e3d818661224e565b90508181036060830152612e51818561224e565b90508181036080830152612e658184612dd0565b90509695505050505050565b600081519050612e8081611c70565b92915050565b600060208284031215612e9c57612e9b611b3c565b5b6000612eaa84828501612e71565b91505092915050565b60008160e01c9050919050565b600060033d1115612edf5760046000803e612edc600051612eb3565b90505b90565b600060443d1015612ef257612f75565b612efa611b32565b60043d036004823e80513d602482011167ffffffffffffffff82111715612f22575050612f75565b808201805167ffffffffffffffff811115612f405750505050612f75565b80602083010160043d038501811115612f5d575050505050612f75565b612f6c82602001850186611e1b565b82955050505050505b90565b7f455243313135353a207472616e7366657220746f206e6f6e2d4552433131353560008201527f526563656976657220696d706c656d656e746572000000000000000000000000602082015250565b6000612fd4603483611d37565b9150612fdf82612f78565b604082019050919050565b6000602082019050818103600083015261300381612fc7565b9050919050565b7f455243313135353a204552433131353552656365697665722072656a6563746560008201527f6420746f6b656e73000000000000000000000000000000000000000000000000602082015250565b6000613066602883611d37565b91506130718261300a565b604082019050919050565b6000602082019050818103600083015261309581613059565b9050919050565b600060a0820190506130b160008301886123f2565b6130be60208301876123f2565b6130cb6040830186611c1a565b6130d86060830185611c1a565b81810360808301526130ea8184612dd0565b9050969550505050505056fea264697066735822122024329ba8b87d34c2ab300bb3fabe5fa05999b345afb657356e7dfad718f916eb64736f6c63430008090033",
  "linkReferences": {},
  "deployedLinkReferences": {}
}