{
  "_format": "hh-sol-artifact-1",
  "contractName": "PassportDoc",
  "sourceName": "contracts/Passport.sol",
  "abi": [
    {
      "inputs": [],
      "stateMutability": "nonpayable",
      "type": "constructor"
    },
    {
      "anonymous": false,
      "inputs": [
        {
          "indexed": true,
          "internalType": "address",
          "name": "owner",
          "type": "address"
        },
        {
          "indexed": true,
          "internalType": "address",
          "name": "approved",
          "type": "address"
        },
        {
          "indexed": true,
          "internalType": "uint256",
          "name": "tokenId",
          "type": "uint256"
        }
      ],
      "name": "Approval",
      "type": "event"
    },
    {
      "anonymous": false,
      "inputs": [
        {
          "indexed": true,
          "internalType": "address",
          "name": "owner",
          "type": "address"
        },
        {
          "indexed": true,
          "internalType": "address",
          "name": "operator",
          "type": "address"
        },
        {
          "indexed": false,
          "internalType": "bool",
          "name": "approved",
          "type": "bool"
        }
      ],
      "name": "ApprovalForAll",
      "type": "event"
    },
    {
      "anonymous": false,
      "inputs": [
        {
          "indexed": false,
          "internalType": "address",
          "name": "owner",
          "type": "address"
        },
        {
          "indexed": false,
          "internalType": "uint256",
          "name": "PassportId",
          "type": "uint256"
        },
        {
          "indexed": false,
          "internalType": "string",
          "name": "name",
          "type": "string"
        },
        {
          "indexed": false,
          "internalType": "string",
          "name": "dob",
          "type": "string"
        },
        {
          "indexed": false,
          "internalType": "string",
          "name": "_born_location",
          "type": "string"
        }
      ],
      "name": "PassportCreated",
      "type": "event"
    },
    {
      "anonymous": false,
      "inputs": [
        {
          "indexed": true,
          "internalType": "address",
          "name": "from",
          "type": "address"
        },
        {
          "indexed": true,
          "internalType": "address",
          "name": "to",
          "type": "address"
        },
        {
          "indexed": true,
          "internalType": "uint256",
          "name": "tokenId",
          "type": "uint256"
        }
      ],
      "name": "Transfer",
      "type": "event"
    },
    {
      "inputs": [
        {
          "internalType": "address",
          "name": "owner",
          "type": "address"
        },
        {
          "internalType": "uint256",
          "name": "_ID",
          "type": "uint256"
        },
        {
          "internalType": "uint256",
          "name": "_passportNumber",
          "type": "uint256"
        },
        {
          "internalType": "string",
          "name": "_name",
          "type": "string"
        },
        {
          "internalType": "string",
          "name": "_dob",
          "type": "string"
        },
        {
          "internalType": "string",
          "name": "_born_location",
          "type": "string"
        }
      ],
      "name": "_createPassport",
      "outputs": [
        {
          "internalType": "uint256",
          "name": "",
          "type": "uint256"
        }
      ],
      "stateMutability": "nonpayable",
      "type": "function"
    },
    {
      "inputs": [
        {
          "internalType": "address",
          "name": "to",
          "type": "address"
        },
        {
          "internalType": "uint256",
          "name": "tokenId",
          "type": "uint256"
        }
      ],
      "name": "approve",
      "outputs": [],
      "stateMutability": "nonpayable",
      "type": "function"
    },
    {
      "inputs": [
        {
          "internalType": "address",
          "name": "owner",
          "type": "address"
        }
      ],
      "name": "balanceOf",
      "outputs": [
        {
          "internalType": "uint256",
          "name": "",
          "type": "uint256"
        }
      ],
      "stateMutability": "view",
      "type": "function"
    },
    {
      "inputs": [
        {
          "internalType": "uint256",
          "name": "tokenId",
          "type": "uint256"
        }
      ],
      "name": "getApproved",
      "outputs": [
        {
          "internalType": "address",
          "name": "",
          "type": "address"
        }
      ],
      "stateMutability": "view",
      "type": "function"
    },
    {
      "inputs": [],
      "name": "getId",
      "outputs": [
        {
          "internalType": "uint256",
          "name": "",
          "type": "uint256"
        }
      ],
      "stateMutability": "view",
      "type": "function"
    },
    {
      "inputs": [
        {
          "internalType": "uint256",
          "name": "_id",
          "type": "uint256"
        }
      ],
      "name": "getPassports",
      "outputs": [
        {
          "internalType": "uint256",
          "name": "id",
          "type": "uint256"
        },
        {
          "internalType": "uint256",
          "name": "passportNumber",
          "type": "uint256"
        },
        {
          "internalType": "string",
          "name": "name",
          "type": "string"
        },
        {
          "internalType": "string",
          "name": "dob",
          "type": "string"
        },
        {
          "internalType": "string",
          "name": "born_location",
          "type": "string"
        }
      ],
      "stateMutability": "view",
      "type": "function"
    },
    {
      "inputs": [
        {
          "internalType": "address",
          "name": "owner",
          "type": "address"
        },
        {
          "internalType": "address",
          "name": "operator",
          "type": "address"
        }
      ],
      "name": "isApprovedForAll",
      "outputs": [
        {
          "internalType": "bool",
          "name": "",
          "type": "bool"
        }
      ],
      "stateMutability": "view",
      "type": "function"
    },
    {
      "inputs": [
        {
          "internalType": "address",
          "name": "to",
          "type": "address"
        }
      ],
      "name": "mint",
      "outputs": [
        {
          "internalType": "uint256",
          "name": "",
          "type": "uint256"
        }
      ],
      "stateMutability": "nonpayable",
      "type": "function"
    },
    {
      "inputs": [],
      "name": "name",
      "outputs": [
        {
          "internalType": "string",
          "name": "",
          "type": "string"
        }
      ],
      "stateMutability": "view",
      "type": "function"
    },
    {
      "inputs": [
        {
          "internalType": "uint256",
          "name": "tokenId",
          "type": "uint256"
        }
      ],
      "name": "ownerOf",
      "outputs": [
        {
          "internalType": "address",
          "name": "",
          "type": "address"
        }
      ],
      "stateMutability": "view",
      "type": "function"
    },
    {
      "inputs": [],
      "name": "passportId",
      "outputs": [
        {
          "internalType": "uint256",
          "name": "",
          "type": "uint256"
        }
      ],
      "stateMutability": "view",
      "type": "function"
    },
    {
      "inputs": [
        {
          "internalType": "address",
          "name": "from",
          "type": "address"
        },
        {
          "internalType": "address",
          "name": "to",
          "type": "address"
        },
        {
          "internalType": "uint256",
          "name": "tokenId",
          "type": "uint256"
        }
      ],
      "name": "safeTransferFrom",
      "outputs": [],
      "stateMutability": "nonpayable",
      "type": "function"
    },
    {
      "inputs": [
        {
          "internalType": "address",
          "name": "from",
          "type": "address"
        },
        {
          "internalType": "address",
          "name": "to",
          "type": "address"
        },
        {
          "internalType": "uint256",
          "name": "tokenId",
          "type": "uint256"
        },
        {
          "internalType": "bytes",
          "name": "data",
          "type": "bytes"
        }
      ],
      "name": "safeTransferFrom",
      "outputs": [],
      "stateMutability": "nonpayable",
      "type": "function"
    },
    {
      "inputs": [
        {
          "internalType": "address",
          "name": "operator",
          "type": "address"
        },
        {
          "internalType": "bool",
          "name": "approved",
          "type": "bool"
        }
      ],
      "name": "setApprovalForAll",
      "outputs": [],
      "stateMutability": "nonpayable",
      "type": "function"
    },
    {
      "inputs": [
        {
          "internalType": "bytes4",
          "name": "interfaceId",
          "type": "bytes4"
        }
      ],
      "name": "supportsInterface",
      "outputs": [
        {
          "internalType": "bool",
          "name": "",
          "type": "bool"
        }
      ],
      "stateMutability": "view",
      "type": "function"
    },
    {
      "inputs": [],
      "name": "symbol",
      "outputs": [
        {
          "internalType": "string",
          "name": "",
          "type": "string"
        }
      ],
      "stateMutability": "view",
      "type": "function"
    },
    {
      "inputs": [
        {
          "internalType": "uint256",
          "name": "tokenId",
          "type": "uint256"
        }
      ],
      "name": "tokenURI",
      "outputs": [
        {
          "internalType": "string",
          "name": "",
          "type": "string"
        }
      ],
      "stateMutability": "view",
      "type": "function"
    },
    {
      "inputs": [
        {
          "internalType": "address",
          "name": "from",
          "type": "address"
        },
        {
          "internalType": "address",
          "name": "to",
          "type": "address"
        },
        {
          "internalType": "uint256",
          "name": "tokenId",
          "type": "uint256"
        }
      ],
      "name": "transferFrom",
      "outputs": [],
      "stateMutability": "nonpayable",
      "type": "function"
    }
  ],
  "bytecode": "0x60806040523480156200001157600080fd5b506040518060400160405280600881526020017f50617373706f72740000000000000000000000000000000000000000000000008152506040518060400160405280600281526020017f5050000000000000000000000000000000000000000000000000000000000000815250816000908051906020019062000096929190620000b8565b508060019080519060200190620000af929190620000b8565b505050620001cd565b828054620000c69062000197565b90600052602060002090601f016020900481019282620000ea576000855562000136565b82601f106200010557805160ff191683800117855562000136565b8280016001018555821562000136579182015b828111156200013557825182559160200191906001019062000118565b5b50905062000145919062000149565b5090565b5b80821115620001645760008160009055506001016200014a565b5090565b7f4e487b7100000000000000000000000000000000000000000000000000000000600052602260045260246000fd5b60006002820490506001821680620001b057607f821691505b60208210811415620001c757620001c662000168565b5b50919050565b612f8480620001dd6000396000f3fe608060405234801561001057600080fd5b50600436106101165760003560e01c80636352211e116100a2578063a22cb46511610071578063a22cb4651461030b578063b88d4fde14610327578063c33fe11714610343578063c87b56dd14610373578063e985e9c5146103a357610116565b80636352211e1461025d5780636a6278421461028d57806370a08231146102bd57806395d89b41146102ed57610116565b806323b872dd116100e957806323b872dd146101b55780633296b419146101d157806342842e0e146101ef578063476de8b41461020b5780635d1ca6311461023f57610116565b806301ffc9a71461011b57806306fdde031461014b578063081812fc14610169578063095ea7b314610199575b600080fd5b61013560048036038101906101309190611ef3565b6103d3565b6040516101429190611f3b565b60405180910390f35b6101536104b5565b6040516101609190611fef565b60405180910390f35b610183600480360381019061017e9190612047565b610547565b60405161019091906120b5565b60405180910390f35b6101b360048036038101906101ae91906120fc565b61058d565b005b6101cf60048036038101906101ca919061213c565b6106a5565b005b6101d9610705565b6040516101e6919061219e565b60405180910390f35b6102096004803603810190610204919061213c565b61070b565b005b61022560048036038101906102209190612047565b61072b565b6040516102369594939291906121b9565b60405180910390f35b6102476109a5565b604051610254919061219e565b60405180910390f35b61027760048036038101906102729190612047565b6109c3565b60405161028491906120b5565b60405180910390f35b6102a760048036038101906102a29190612221565b610a4a565b6040516102b4919061219e565b60405180910390f35b6102d760048036038101906102d29190612221565b610a90565b6040516102e4919061219e565b60405180910390f35b6102f5610b48565b6040516103029190611fef565b60405180910390f35b6103256004803603810190610320919061227a565b610bda565b005b610341600480360381019061033c91906123ef565b610bf0565b005b61035d60048036038101906103589190612513565b610c52565b60405161036a919061219e565b60405180910390f35b61038d60048036038101906103889190612047565b610d93565b60405161039a9190611fef565b60405180910390f35b6103bd60048036038101906103b891906125f4565b610dfb565b6040516103ca9190611f3b565b60405180910390f35b60007f80ac58cd000000000000000000000000000000000000000000000000000000007bffffffffffffffffffffffffffffffffffffffffffffffffffffffff1916827bffffffffffffffffffffffffffffffffffffffffffffffffffffffff1916148061049e57507f5b5e139f000000000000000000000000000000000000000000000000000000007bffffffffffffffffffffffffffffffffffffffffffffffffffffffff1916827bffffffffffffffffffffffffffffffffffffffffffffffffffffffff1916145b806104ae57506104ad82610e8f565b5b9050919050565b6060600080546104c490612663565b80601f01602080910402602001604051908101604052809291908181526020018280546104f090612663565b801561053d5780601f106105125761010080835404028352916020019161053d565b820191906000526020600020905b81548152906001019060200180831161052057829003601f168201915b5050505050905090565b600061055282610ef9565b6004600083815260200190815260200160002060009054906101000a900473ffffffffffffffffffffffffffffffffffffffff169050919050565b6000610598826109c3565b90508073ffffffffffffffffffffffffffffffffffffffff168373ffffffffffffffffffffffffffffffffffffffff161415610609576040517f08c379a000000000000000000000000000000000000000000000000000000000815260040161060090612707565b60405180910390fd5b8073ffffffffffffffffffffffffffffffffffffffff16610628610f44565b73ffffffffffffffffffffffffffffffffffffffff161480610657575061065681610651610f44565b610dfb565b5b610696576040517f08c379a000000000000000000000000000000000000000000000000000000000815260040161068d90612799565b60405180910390fd5b6106a08383610f4c565b505050565b6106b66106b0610f44565b82611005565b6106f5576040517f08c379a00000000000000000000000000000000000000000000000000000000081526004016106ec9061282b565b60405180910390fd5b61070083838361109a565b505050565b60075481565b61072683838360405180602001604052806000815250610bf0565b505050565b6000806060806060600886815481106107475761074661284b565b5b9060005260206000209060050201600001546008878154811061076d5761076c61284b565b5b906000526020600020906005020160010154600888815481106107935761079261284b565b5b9060005260206000209060050201600201600889815481106107b8576107b761284b565b5b906000526020600020906005020160030160088a815481106107dd576107dc61284b565b5b90600052602060002090600502016004018280546107fa90612663565b80601f016020809104026020016040519081016040528092919081815260200182805461082690612663565b80156108735780601f1061084857610100808354040283529160200191610873565b820191906000526020600020905b81548152906001019060200180831161085657829003601f168201915b5050505050925081805461088690612663565b80601f01602080910402602001604051908101604052809291908181526020018280546108b290612663565b80156108ff5780601f106108d4576101008083540402835291602001916108ff565b820191906000526020600020905b8154815290600101906020018083116108e257829003601f168201915b5050505050915080805461091290612663565b80601f016020809104026020016040519081016040528092919081815260200182805461093e90612663565b801561098b5780601f106109605761010080835404028352916020019161098b565b820191906000526020600020905b81548152906001019060200180831161096e57829003601f168201915b505050505090509450945094509450945091939590929450565b60008060016008805490506109ba91906128a9565b90508091505090565b6000806109cf83611394565b9050600073ffffffffffffffffffffffffffffffffffffffff168173ffffffffffffffffffffffffffffffffffffffff161415610a41576040517f08c379a0000000000000000000000000000000000000000000000000000000008152600401610a3890612929565b60405180910390fd5b80915050919050565b60006003610a5860066113d1565b10610a6257600080fd5b610a6c60066113df565b610a7f82610a7a60066113d1565b6113f5565b610a8960066113d1565b9050919050565b60008073ffffffffffffffffffffffffffffffffffffffff168273ffffffffffffffffffffffffffffffffffffffff161415610b01576040517f08c379a0000000000000000000000000000000000000000000000000000000008152600401610af8906129bb565b60405180910390fd5b600360008373ffffffffffffffffffffffffffffffffffffffff1673ffffffffffffffffffffffffffffffffffffffff168152602001908152602001600020549050919050565b606060018054610b5790612663565b80601f0160208091040260200160405190810160405280929190818152602001828054610b8390612663565b8015610bd05780601f10610ba557610100808354040283529160200191610bd0565b820191906000526020600020905b815481529060010190602001808311610bb357829003601f168201915b5050505050905090565b610bec610be5610f44565b8383611413565b5050565b610c01610bfb610f44565b83611005565b610c40576040517f08c379a0000000000000000000000000000000000000000000000000000000008152600401610c379061282b565b60405180910390fd5b610c4c84848484611580565b50505050565b6000806040518060a00160405280888152602001878152602001868152602001858152602001848152509050600881908060018154018082558091505060019003906000526020600020906005020160009091909190915060008201518160000155602082015181600101556040820151816002019080519060200190610cda929190611de4565b506060820151816003019080519060200190610cf7929190611de4565b506080820151816004019080519060200190610d14929190611de4565b50505060006001600880549050610d2b91906128a9565b90507f8dba34aaab64d6f2323a6d80f7e9ed76d414a9d590c4c6f26ea9a84174c28fa38982888888604051610d649594939291906129db565b60405180910390a160076000815480929190610d7f90612a43565b919050555080925050509695505050505050565b6060610d9e82610ef9565b6000610da86115dc565b90506000815111610dc85760405180602001604052806000815250610df3565b80610dd284611619565b604051602001610de3929190612ac8565b6040516020818303038152906040525b915050919050565b6000600560008473ffffffffffffffffffffffffffffffffffffffff1673ffffffffffffffffffffffffffffffffffffffff16815260200190815260200160002060008373ffffffffffffffffffffffffffffffffffffffff1673ffffffffffffffffffffffffffffffffffffffff16815260200190815260200160002060009054906101000a900460ff16905092915050565b60007f01ffc9a7000000000000000000000000000000000000000000000000000000007bffffffffffffffffffffffffffffffffffffffffffffffffffffffff1916827bffffffffffffffffffffffffffffffffffffffffffffffffffffffff1916149050919050565b610f02816116f1565b610f41576040517f08c379a0000000000000000000000000000000000000000000000000000000008152600401610f3890612929565b60405180910390fd5b50565b600033905090565b816004600083815260200190815260200160002060006101000a81548173ffffffffffffffffffffffffffffffffffffffff021916908373ffffffffffffffffffffffffffffffffffffffff160217905550808273ffffffffffffffffffffffffffffffffffffffff16610fbf836109c3565b73ffffffffffffffffffffffffffffffffffffffff167f8c5be1e5ebec7d5bd14f71427d1e84f3dd0314c0f7b2291e5b200ac8c7c3b92560405160405180910390a45050565b600080611011836109c3565b90508073ffffffffffffffffffffffffffffffffffffffff168473ffffffffffffffffffffffffffffffffffffffff16148061105357506110528185610dfb565b5b8061109157508373ffffffffffffffffffffffffffffffffffffffff1661107984610547565b73ffffffffffffffffffffffffffffffffffffffff16145b91505092915050565b8273ffffffffffffffffffffffffffffffffffffffff166110ba826109c3565b73ffffffffffffffffffffffffffffffffffffffff1614611110576040517f08c379a000000000000000000000000000000000000000000000000000000000815260040161110790612b5e565b60405180910390fd5b600073ffffffffffffffffffffffffffffffffffffffff168273ffffffffffffffffffffffffffffffffffffffff161415611180576040517f08c379a000000000000000000000000000000000000000000000000000000000815260040161117790612bf0565b60405180910390fd5b61118d8383836001611732565b8273ffffffffffffffffffffffffffffffffffffffff166111ad826109c3565b73ffffffffffffffffffffffffffffffffffffffff1614611203576040517f08c379a00000000000000000000000000000000000000000000000000000000081526004016111fa90612b5e565b60405180910390fd5b6004600082815260200190815260200160002060006101000a81549073ffffffffffffffffffffffffffffffffffffffff02191690556001600360008573ffffffffffffffffffffffffffffffffffffffff1673ffffffffffffffffffffffffffffffffffffffff168152602001908152602001600020600082825403925050819055506001600360008473ffffffffffffffffffffffffffffffffffffffff1673ffffffffffffffffffffffffffffffffffffffff16815260200190815260200160002060008282540192505081905550816002600083815260200190815260200160002060006101000a81548173ffffffffffffffffffffffffffffffffffffffff021916908373ffffffffffffffffffffffffffffffffffffffff160217905550808273ffffffffffffffffffffffffffffffffffffffff168473ffffffffffffffffffffffffffffffffffffffff167fddf252ad1be2c89b69c2b068fc378daa952ba7f163c4a11628f55a4df523b3ef60405160405180910390a461138f8383836001611858565b505050565b60006002600083815260200190815260200160002060009054906101000a900473ffffffffffffffffffffffffffffffffffffffff169050919050565b600081600001549050919050565b6001816000016000828254019250508190555050565b61140f82826040518060200160405280600081525061185e565b5050565b8173ffffffffffffffffffffffffffffffffffffffff168373ffffffffffffffffffffffffffffffffffffffff161415611482576040517f08c379a000000000000000000000000000000000000000000000000000000000815260040161147990612c5c565b60405180910390fd5b80600560008573ffffffffffffffffffffffffffffffffffffffff1673ffffffffffffffffffffffffffffffffffffffff16815260200190815260200160002060008473ffffffffffffffffffffffffffffffffffffffff1673ffffffffffffffffffffffffffffffffffffffff16815260200190815260200160002060006101000a81548160ff0219169083151502179055508173ffffffffffffffffffffffffffffffffffffffff168373ffffffffffffffffffffffffffffffffffffffff167f17307eab39ab6107e8899845ad3d59bd9653f200f220920489ca2b5937696c31836040516115739190611f3b565b60405180910390a3505050565b61158b84848461109a565b611597848484846118b9565b6115d6576040517f08c379a00000000000000000000000000000000000000000000000000000000081526004016115cd90612cee565b60405180910390fd5b50505050565b60606040518060400160405280600d81526020017f2e2f6d657461646174612e6a7300000000000000000000000000000000000000815250905090565b60606000600161162884611a50565b01905060008167ffffffffffffffff811115611647576116466122c4565b5b6040519080825280601f01601f1916602001820160405280156116795781602001600182028036833780820191505090505b509050600082602001820190505b6001156116e6578080600190039150507f3031323334353637383961626364656600000000000000000000000000000000600a86061a8153600a85816116d0576116cf612d0e565b5b04945060008514156116e1576116e6565b611687565b819350505050919050565b60008073ffffffffffffffffffffffffffffffffffffffff1661171383611394565b73ffffffffffffffffffffffffffffffffffffffff1614159050919050565b600181111561185257600073ffffffffffffffffffffffffffffffffffffffff168473ffffffffffffffffffffffffffffffffffffffff16146117c65780600360008673ffffffffffffffffffffffffffffffffffffffff1673ffffffffffffffffffffffffffffffffffffffff16815260200190815260200160002060008282546117be91906128a9565b925050819055505b600073ffffffffffffffffffffffffffffffffffffffff168373ffffffffffffffffffffffffffffffffffffffff16146118515780600360008573ffffffffffffffffffffffffffffffffffffffff1673ffffffffffffffffffffffffffffffffffffffff16815260200190815260200160002060008282546118499190612d3d565b925050819055505b5b50505050565b50505050565b6118688383611ba3565b61187560008484846118b9565b6118b4576040517f08c379a00000000000000000000000000000000000000000000000000000000081526004016118ab90612cee565b60405180910390fd5b505050565b60006118da8473ffffffffffffffffffffffffffffffffffffffff16611dc1565b15611a43578373ffffffffffffffffffffffffffffffffffffffff1663150b7a02611903610f44565b8786866040518563ffffffff1660e01b81526004016119259493929190612de8565b602060405180830381600087803b15801561193f57600080fd5b505af192505050801561197057506040513d601f19601f8201168201806040525081019061196d9190612e49565b60015b6119f3573d80600081146119a0576040519150601f19603f3d011682016040523d82523d6000602084013e6119a5565b606091505b506000815114156119eb576040517f08c379a00000000000000000000000000000000000000000000000000000000081526004016119e290612cee565b60405180910390fd5b805181602001fd5b63150b7a0260e01b7bffffffffffffffffffffffffffffffffffffffffffffffffffffffff1916817bffffffffffffffffffffffffffffffffffffffffffffffffffffffff191614915050611a48565b600190505b949350505050565b600080600090507a184f03e93ff9f4daa797ed6e38ed64bf6a1f0100000000000000008310611aae577a184f03e93ff9f4daa797ed6e38ed64bf6a1f0100000000000000008381611aa457611aa3612d0e565b5b0492506040810190505b6d04ee2d6d415b85acef81000000008310611aeb576d04ee2d6d415b85acef81000000008381611ae157611ae0612d0e565b5b0492506020810190505b662386f26fc100008310611b1a57662386f26fc100008381611b1057611b0f612d0e565b5b0492506010810190505b6305f5e1008310611b43576305f5e1008381611b3957611b38612d0e565b5b0492506008810190505b6127108310611b68576127108381611b5e57611b5d612d0e565b5b0492506004810190505b60648310611b8b5760648381611b8157611b80612d0e565b5b0492506002810190505b600a8310611b9a576001810190505b80915050919050565b600073ffffffffffffffffffffffffffffffffffffffff168273ffffffffffffffffffffffffffffffffffffffff161415611c13576040517f08c379a0000000000000000000000000000000000000000000000000000000008152600401611c0a90612ec2565b60405180910390fd5b611c1c816116f1565b15611c5c576040517f08c379a0000000000000000000000000000000000000000000000000000000008152600401611c5390612f2e565b60405180910390fd5b611c6a600083836001611732565b611c73816116f1565b15611cb3576040517f08c379a0000000000000000000000000000000000000000000000000000000008152600401611caa90612f2e565b60405180910390fd5b6001600360008473ffffffffffffffffffffffffffffffffffffffff1673ffffffffffffffffffffffffffffffffffffffff16815260200190815260200160002060008282540192505081905550816002600083815260200190815260200160002060006101000a81548173ffffffffffffffffffffffffffffffffffffffff021916908373ffffffffffffffffffffffffffffffffffffffff160217905550808273ffffffffffffffffffffffffffffffffffffffff16600073ffffffffffffffffffffffffffffffffffffffff167fddf252ad1be2c89b69c2b068fc378daa952ba7f163c4a11628f55a4df523b3ef60405160405180910390a4611dbd600083836001611858565b5050565b6000808273ffffffffffffffffffffffffffffffffffffffff163b119050919050565b828054611df090612663565b90600052602060002090601f016020900481019282611e125760008555611e59565b82601f10611e2b57805160ff1916838001178555611e59565b82800160010185558215611e59579182015b82811115611e58578251825591602001919060010190611e3d565b5b509050611e669190611e6a565b5090565b5b80821115611e83576000816000905550600101611e6b565b5090565b6000604051905090565b600080fd5b600080fd5b60007fffffffff0000000000000000000000000000000000000000000000000000000082169050919050565b611ed081611e9b565b8114611edb57600080fd5b50565b600081359050611eed81611ec7565b92915050565b600060208284031215611f0957611f08611e91565b5b6000611f1784828501611ede565b91505092915050565b60008115159050919050565b611f3581611f20565b82525050565b6000602082019050611f506000830184611f2c565b92915050565b600081519050919050565b600082825260208201905092915050565b60005b83811015611f90578082015181840152602081019050611f75565b83811115611f9f576000848401525b50505050565b6000601f19601f8301169050919050565b6000611fc182611f56565b611fcb8185611f61565b9350611fdb818560208601611f72565b611fe481611fa5565b840191505092915050565b600060208201905081810360008301526120098184611fb6565b905092915050565b6000819050919050565b61202481612011565b811461202f57600080fd5b50565b6000813590506120418161201b565b92915050565b60006020828403121561205d5761205c611e91565b5b600061206b84828501612032565b91505092915050565b600073ffffffffffffffffffffffffffffffffffffffff82169050919050565b600061209f82612074565b9050919050565b6120af81612094565b82525050565b60006020820190506120ca60008301846120a6565b92915050565b6120d981612094565b81146120e457600080fd5b50565b6000813590506120f6816120d0565b92915050565b6000806040838503121561211357612112611e91565b5b6000612121858286016120e7565b925050602061213285828601612032565b9150509250929050565b60008060006060848603121561215557612154611e91565b5b6000612163868287016120e7565b9350506020612174868287016120e7565b925050604061218586828701612032565b9150509250925092565b61219881612011565b82525050565b60006020820190506121b3600083018461218f565b92915050565b600060a0820190506121ce600083018861218f565b6121db602083018761218f565b81810360408301526121ed8186611fb6565b905081810360608301526122018185611fb6565b905081810360808301526122158184611fb6565b90509695505050505050565b60006020828403121561223757612236611e91565b5b6000612245848285016120e7565b91505092915050565b61225781611f20565b811461226257600080fd5b50565b6000813590506122748161224e565b92915050565b6000806040838503121561229157612290611e91565b5b600061229f858286016120e7565b92505060206122b085828601612265565b9150509250929050565b600080fd5b600080fd5b7f4e487b7100000000000000000000000000000000000000000000000000000000600052604160045260246000fd5b6122fc82611fa5565b810181811067ffffffffffffffff8211171561231b5761231a6122c4565b5b80604052505050565b600061232e611e87565b905061233a82826122f3565b919050565b600067ffffffffffffffff82111561235a576123596122c4565b5b61236382611fa5565b9050602081019050919050565b82818337600083830152505050565b600061239261238d8461233f565b612324565b9050828152602081018484840111156123ae576123ad6122bf565b5b6123b9848285612370565b509392505050565b600082601f8301126123d6576123d56122ba565b5b81356123e684826020860161237f565b91505092915050565b6000806000806080858703121561240957612408611e91565b5b6000612417878288016120e7565b9450506020612428878288016120e7565b935050604061243987828801612032565b925050606085013567ffffffffffffffff81111561245a57612459611e96565b5b612466878288016123c1565b91505092959194509250565b600067ffffffffffffffff82111561248d5761248c6122c4565b5b61249682611fa5565b9050602081019050919050565b60006124b66124b184612472565b612324565b9050828152602081018484840111156124d2576124d16122bf565b5b6124dd848285612370565b509392505050565b600082601f8301126124fa576124f96122ba565b5b813561250a8482602086016124a3565b91505092915050565b60008060008060008060c087890312156125305761252f611e91565b5b600061253e89828a016120e7565b965050602061254f89828a01612032565b955050604061256089828a01612032565b945050606087013567ffffffffffffffff81111561258157612580611e96565b5b61258d89828a016124e5565b935050608087013567ffffffffffffffff8111156125ae576125ad611e96565b5b6125ba89828a016124e5565b92505060a087013567ffffffffffffffff8111156125db576125da611e96565b5b6125e789828a016124e5565b9150509295509295509295565b6000806040838503121561260b5761260a611e91565b5b6000612619858286016120e7565b925050602061262a858286016120e7565b9150509250929050565b7f4e487b7100000000000000000000000000000000000000000000000000000000600052602260045260246000fd5b6000600282049050600182168061267b57607f821691505b6020821081141561268f5761268e612634565b5b50919050565b7f4552433732313a20617070726f76616c20746f2063757272656e74206f776e6560008201527f7200000000000000000000000000000000000000000000000000000000000000602082015250565b60006126f1602183611f61565b91506126fc82612695565b604082019050919050565b60006020820190508181036000830152612720816126e4565b9050919050565b7f4552433732313a20617070726f76652063616c6c6572206973206e6f7420746f60008201527f6b656e206f776e6572206f7220617070726f76656420666f7220616c6c000000602082015250565b6000612783603d83611f61565b915061278e82612727565b604082019050919050565b600060208201905081810360008301526127b281612776565b9050919050565b7f4552433732313a2063616c6c6572206973206e6f7420746f6b656e206f776e6560008201527f72206f7220617070726f76656400000000000000000000000000000000000000602082015250565b6000612815602d83611f61565b9150612820826127b9565b604082019050919050565b6000602082019050818103600083015261284481612808565b9050919050565b7f4e487b7100000000000000000000000000000000000000000000000000000000600052603260045260246000fd5b7f4e487b7100000000000000000000000000000000000000000000000000000000600052601160045260246000fd5b60006128b482612011565b91506128bf83612011565b9250828210156128d2576128d161287a565b5b828203905092915050565b7f4552433732313a20696e76616c696420746f6b656e2049440000000000000000600082015250565b6000612913601883611f61565b915061291e826128dd565b602082019050919050565b6000602082019050818103600083015261294281612906565b9050919050565b7f4552433732313a2061646472657373207a65726f206973206e6f74206120766160008201527f6c6964206f776e65720000000000000000000000000000000000000000000000602082015250565b60006129a5602983611f61565b91506129b082612949565b604082019050919050565b600060208201905081810360008301526129d481612998565b9050919050565b600060a0820190506129f060008301886120a6565b6129fd602083018761218f565b8181036040830152612a0f8186611fb6565b90508181036060830152612a238185611fb6565b90508181036080830152612a378184611fb6565b90509695505050505050565b6000612a4e82612011565b91507fffffffffffffffffffffffffffffffffffffffffffffffffffffffffffffffff821415612a8157612a8061287a565b5b600182019050919050565b600081905092915050565b6000612aa282611f56565b612aac8185612a8c565b9350612abc818560208601611f72565b80840191505092915050565b6000612ad48285612a97565b9150612ae08284612a97565b91508190509392505050565b7f4552433732313a207472616e736665722066726f6d20696e636f72726563742060008201527f6f776e6572000000000000000000000000000000000000000000000000000000602082015250565b6000612b48602583611f61565b9150612b5382612aec565b604082019050919050565b60006020820190508181036000830152612b7781612b3b565b9050919050565b7f4552433732313a207472616e7366657220746f20746865207a65726f2061646460008201527f7265737300000000000000000000000000000000000000000000000000000000602082015250565b6000612bda602483611f61565b9150612be582612b7e565b604082019050919050565b60006020820190508181036000830152612c0981612bcd565b9050919050565b7f4552433732313a20617070726f766520746f2063616c6c657200000000000000600082015250565b6000612c46601983611f61565b9150612c5182612c10565b602082019050919050565b60006020820190508181036000830152612c7581612c39565b9050919050565b7f4552433732313a207472616e7366657220746f206e6f6e20455243373231526560008201527f63656976657220696d706c656d656e7465720000000000000000000000000000602082015250565b6000612cd8603283611f61565b9150612ce382612c7c565b604082019050919050565b60006020820190508181036000830152612d0781612ccb565b9050919050565b7f4e487b7100000000000000000000000000000000000000000000000000000000600052601260045260246000fd5b6000612d4882612011565b9150612d5383612011565b9250827fffffffffffffffffffffffffffffffffffffffffffffffffffffffffffffffff03821115612d8857612d8761287a565b5b828201905092915050565b600081519050919050565b600082825260208201905092915050565b6000612dba82612d93565b612dc48185612d9e565b9350612dd4818560208601611f72565b612ddd81611fa5565b840191505092915050565b6000608082019050612dfd60008301876120a6565b612e0a60208301866120a6565b612e17604083018561218f565b8181036060830152612e298184612daf565b905095945050505050565b600081519050612e4381611ec7565b92915050565b600060208284031215612e5f57612e5e611e91565b5b6000612e6d84828501612e34565b91505092915050565b7f4552433732313a206d696e7420746f20746865207a65726f2061646472657373600082015250565b6000612eac602083611f61565b9150612eb782612e76565b602082019050919050565b60006020820190508181036000830152612edb81612e9f565b9050919050565b7f4552433732313a20746f6b656e20616c7265616479206d696e74656400000000600082015250565b6000612f18601c83611f61565b9150612f2382612ee2565b602082019050919050565b60006020820190508181036000830152612f4781612f0b565b905091905056fea26469706673582212209500e6220eda3239408f4501577c854f2b6b742f2b46bb68caf409c53199ede764736f6c63430008090033",
  "linkReferences": {},
  "deployedLinkReferences": {}
}